{
  "contractName": "QuickMoney",
  "abi": [
    {
      "constant": true,
      "inputs": [],
      "name": "loanCount",
      "outputs": [
        {
          "internalType": "uint256",
          "name": "",
          "type": "uint256"
        }
      ],
      "payable": false,
      "stateMutability": "view",
      "type": "function"
    },
    {
      "constant": true,
      "inputs": [
        {
          "internalType": "uint256",
          "name": "",
          "type": "uint256"
        }
      ],
      "name": "loans",
      "outputs": [
        {
          "internalType": "uint256",
          "name": "identity",
          "type": "uint256"
        },
        {
          "internalType": "string",
          "name": "loanDetail",
          "type": "string"
        },
        {
          "internalType": "uint256",
          "name": "loanAmount",
          "type": "uint256"
        },
        {
          "internalType": "uint256",
          "name": "loanPaid",
          "type": "uint256"
        },
        {
          "internalType": "uint256",
          "name": "interest",
          "type": "uint256"
        },
        {
          "internalType": "uint256",
          "name": "rating",
          "type": "uint256"
        },
        {
          "internalType": "uint256",
          "name": "period",
          "type": "uint256"
        },
        {
          "internalType": "uint256",
          "name": "holding",
          "type": "uint256"
        },
        {
          "internalType": "address payable",
          "name": "loanee",
          "type": "address"
        },
        {
          "internalType": "address payable",
          "name": "loaner",
          "type": "address"
        },
        {
          "internalType": "bool",
          "name": "sanctioned",
          "type": "bool"
        },
        {
          "internalType": "uint256",
          "name": "remaining",
          "type": "uint256"
        },
        {
          "internalType": "bool",
          "name": "payedoff",
          "type": "bool"
        }
      ],
      "payable": false,
      "stateMutability": "view",
      "type": "function"
    },
    {
      "constant": true,
      "inputs": [
        {
          "internalType": "uint256",
          "name": "",
          "type": "uint256"
        }
      ],
      "name": "requests",
      "outputs": [
        {
          "internalType": "uint256",
          "name": "id",
          "type": "uint256"
        },
        {
          "internalType": "string",
          "name": "loanDetail",
          "type": "string"
        },
        {
          "internalType": "uint256",
          "name": "value",
          "type": "uint256"
        },
        {
          "internalType": "uint256",
          "name": "loanId",
          "type": "uint256"
        },
        {
          "internalType": "address payable",
          "name": "loanee",
          "type": "address"
        },
        {
          "internalType": "address payable",
          "name": "loaner",
          "type": "address"
        },
        {
          "internalType": "bool",
          "name": "approved",
          "type": "bool"
        },
        {
          "internalType": "uint256",
          "name": "interest",
          "type": "uint256"
        },
        {
          "internalType": "uint256",
          "name": "months",
          "type": "uint256"
        }
      ],
      "payable": false,
      "stateMutability": "view",
      "type": "function"
    },
    {
      "constant": true,
      "inputs": [],
      "name": "requestsCount",
      "outputs": [
        {
          "internalType": "uint256",
          "name": "",
          "type": "uint256"
        }
      ],
      "payable": false,
      "stateMutability": "view",
      "type": "function"
    },
    {
      "constant": false,
      "inputs": [
        {
          "internalType": "string",
          "name": "detail",
          "type": "string"
        },
        {
          "internalType": "uint256",
          "name": "amount",
          "type": "uint256"
        },
        {
          "internalType": "uint256",
          "name": "rating",
          "type": "uint256"
        }
      ],
      "name": "newLoan",
      "outputs": [],
      "payable": false,
      "stateMutability": "nonpayable",
      "type": "function"
    },
    {
      "constant": false,
      "inputs": [
        {
          "internalType": "uint256",
          "name": "_id",
          "type": "uint256"
        },
        {
          "internalType": "uint256",
          "name": "value",
          "type": "uint256"
        }
      ],
      "name": "payoff",
      "outputs": [],
      "payable": true,
      "stateMutability": "payable",
      "type": "function"
    },
    {
      "constant": false,
      "inputs": [
        {
          "internalType": "uint256",
          "name": "_id",
          "type": "uint256"
        },
        {
          "internalType": "uint256",
          "name": "interest",
          "type": "uint256"
        },
        {
          "internalType": "uint256",
          "name": "months",
          "type": "uint256"
        }
      ],
      "name": "interestRequest",
      "outputs": [],
      "payable": true,
      "stateMutability": "payable",
      "type": "function"
    },
    {
      "constant": false,
      "inputs": [
        {
          "internalType": "uint256",
          "name": "_id",
          "type": "uint256"
        },
        {
          "internalType": "uint256",
          "name": "reqid",
          "type": "uint256"
        },
        {
          "internalType": "uint256",
          "name": "amt",
          "type": "uint256"
        }
      ],
      "name": "approveRequest",
      "outputs": [],
      "payable": true,
      "stateMutability": "payable",
      "type": "function"
    },
    {
      "constant": false,
      "inputs": [
        {
          "internalType": "uint256",
          "name": "_id",
          "type": "uint256"
        },
        {
          "internalType": "uint256",
          "name": "reqid",
          "type": "uint256"
        }
      ],
      "name": "declineRequest",
      "outputs": [],
      "payable": true,
      "stateMutability": "payable",
      "type": "function"
    },
    {
      "constant": false,
      "inputs": [
        {
          "internalType": "uint256",
          "name": "_id",
          "type": "uint256"
        },
        {
          "internalType": "uint256",
          "name": "reqid",
          "type": "uint256"
        }
      ],
      "name": "cancelProposal",
      "outputs": [],
      "payable": true,
      "stateMutability": "payable",
      "type": "function"
    }
  ],
  "bytecode": "0x608060405260008055600060015534801561001957600080fd5b50611325806100296000396000f3fe6080604052600436106100915760003560e01c8063accbeb6811610059578063accbeb68146102d2578063ad3fecfc1461030a578063ce63094d146103e6578063e1ec3c6814610411578063fbfa4b7f1461057957610091565b8063405cc011146100965780635ded8b06146100d857806381d12c5814610110578063865f782814610258578063960be3741461029a575b600080fd5b6100d6600480360360608110156100ac57600080fd5b810190808035906020019092919080359060200190929190803590602001909291905050506105a4565b005b61010e600480360360408110156100ee57600080fd5b8101908080359060200190929190803590602001909291905050506106ee565b005b34801561011c57600080fd5b506101496004803603602081101561013357600080fd5b81019080803590602001909291905050506108ff565b604051808a8152602001806020018981526020018881526020018773ffffffffffffffffffffffffffffffffffffffff1673ffffffffffffffffffffffffffffffffffffffff1681526020018673ffffffffffffffffffffffffffffffffffffffff1673ffffffffffffffffffffffffffffffffffffffff1681526020018515151515815260200184815260200183815260200182810382528a818151815260200191508051906020019080838360005b838110156102155780820151818401526020810190506101fa565b50505050905090810190601f1680156102425780820380516001836020036101000a031916815260200191505b509a505050505050505050505060405180910390f35b6102986004803603606081101561026e57600080fd5b81019080803590602001909291908035906020019092919080359060200190929190505050610a32565b005b6102d0600480360360408110156102b057600080fd5b810190808035906020019092919080359060200190929190505050610c62565b005b610308600480360360408110156102e857600080fd5b810190808035906020019092919080359060200190929190505050610d31565b005b34801561031657600080fd5b506103e46004803603606081101561032d57600080fd5b810190808035906020019064010000000081111561034a57600080fd5b82018360208201111561035c57600080fd5b8035906020019184600183028401116401000000008311171561037e57600080fd5b91908080601f016020809104026020016040519081016040528093929190818152602001838380828437600081840152601f19601f8201169050808301925050505050505091929192908035906020019092919080359060200190929190505050610f66565b005b3480156103f257600080fd5b506103fb611018565b6040518082815260200191505060405180910390f35b34801561041d57600080fd5b5061044a6004803603602081101561043457600080fd5b810190808035906020019092919050505061101e565b604051808e8152602001806020018d81526020018c81526020018b81526020018a81526020018981526020018881526020018773ffffffffffffffffffffffffffffffffffffffff1673ffffffffffffffffffffffffffffffffffffffff1681526020018673ffffffffffffffffffffffffffffffffffffffff1673ffffffffffffffffffffffffffffffffffffffff168152602001851515151581526020018481526020018315151515815260200182810382528e818151815260200191508051906020019080838360005b83811015610532578082015181840152602081019050610517565b50505050905090810190601f16801561055f5780820380516001836020036101000a031916815260200191505b509e50505050505050505050505050505060405180910390f35b34801561058557600080fd5b5061058e611176565b6040518082815260200191505060405180910390f35b60006002600085815260200190815260200160002090506000600360006001548152602001908152602001600020905060015481600001819055508381600601819055508281600701819055503481600201819055508160010181600101908054600181600116156101000203166002900461062192919061117c565b508160080160009054906101000a900473ffffffffffffffffffffffffffffffffffffffff168160040160006101000a81548173ffffffffffffffffffffffffffffffffffffffff021916908373ffffffffffffffffffffffffffffffffffffffff160217905550848160030181905550338160050160006101000a81548173ffffffffffffffffffffffffffffffffffffffff021916908373ffffffffffffffffffffffffffffffffffffffff1602179055506001600081548092919060010191905055505050505050565b600060026000848152602001908152602001600020905060006003600084815260200190815260200160002090508060050160009054906101000a900473ffffffffffffffffffffffffffffffffffffffff1673ffffffffffffffffffffffffffffffffffffffff163373ffffffffffffffffffffffffffffffffffffffff16146107e1576040517f08c379a00000000000000000000000000000000000000000000000000000000081526004018080602001828103825260168152602001807f596f7520617265206e6f7420617574686f72697365640000000000000000000081525060200191505060405180910390fd5b60008160050160146101000a81548160ff0219169083151502179055503373ffffffffffffffffffffffffffffffffffffffff166108fc83600201549081150290604051600060405180830381858888f19350505050158015610848573d6000803e3d6000fd5b50600360008481526020019081526020016000206000808201600090556001820160006108759190611203565b600282016000905560038201600090556004820160006101000a81549073ffffffffffffffffffffffffffffffffffffffff02191690556005820160006101000a81549073ffffffffffffffffffffffffffffffffffffffff02191690556005820160146101000a81549060ff021916905560068201600090556007820160009055505050505050565b6003602052806000526040600020600091509050806000015490806001018054600181600116156101000203166002900480601f0160208091040260200160405190810160405280929190818152602001828054600181600116156101000203166002900480156109b15780601f10610986576101008083540402835291602001916109b1565b820191906000526020600020905b81548152906001019060200180831161099457829003601f168201915b5050505050908060020154908060030154908060040160009054906101000a900473ffffffffffffffffffffffffffffffffffffffff16908060050160009054906101000a900473ffffffffffffffffffffffffffffffffffffffff16908060050160149054906101000a900460ff16908060060154908060070154905089565b60006002600085815260200190815260200160002090508060080160009054906101000a900473ffffffffffffffffffffffffffffffffffffffff1673ffffffffffffffffffffffffffffffffffffffff163373ffffffffffffffffffffffffffffffffffffffff1614610b0e576040517f08c379a00000000000000000000000000000000000000000000000000000000081526004018080602001828103825260168152602001807f596f7520617265206e6f7420617574686f72697365640000000000000000000081525060200191505060405180910390fd5b600060036000858152602001908152602001600020905060018160050160146101000a81548160ff021916908315150217905550600182600b0160006101000a81548160ff0219169083151502179055508060050160009054906101000a900473ffffffffffffffffffffffffffffffffffffffff168260090160006101000a81548173ffffffffffffffffffffffffffffffffffffffff021916908373ffffffffffffffffffffffffffffffffffffffff1602179055508060060154826004018190555080600701548260060181905550600082600301819055508282600c0181905550600082600d0160006101000a81548160ff0219169083151502179055503373ffffffffffffffffffffffffffffffffffffffff166108fc83600201549081150290604051600060405180830381858888f19350505050158015610c5a573d6000803e3d6000fd5b505050505050565b60006002600084815260200190815260200160002090508181600301540181600301819055508181600c01540381600c0181905550600081600c015411610cc157600181600d0160006101000a81548160ff0219169083151502179055505b8060090160009054906101000a900473ffffffffffffffffffffffffffffffffffffffff1673ffffffffffffffffffffffffffffffffffffffff166108fc349081150290604051600060405180830381858888f19350505050158015610d2b573d6000803e3d6000fd5b50505050565b60006002600084815260200190815260200160002090508060080160009054906101000a900473ffffffffffffffffffffffffffffffffffffffff1673ffffffffffffffffffffffffffffffffffffffff163373ffffffffffffffffffffffffffffffffffffffff1614610e0d576040517f08c379a00000000000000000000000000000000000000000000000000000000081526004018080602001828103825260168152602001807f596f7520617265206e6f7420617574686f72697365640000000000000000000081525060200191505060405180910390fd5b600060036000848152602001908152602001600020905060008160050160146101000a81548160ff0219169083151502179055508060050160009054906101000a900473ffffffffffffffffffffffffffffffffffffffff1673ffffffffffffffffffffffffffffffffffffffff166108fc83600201549081150290604051600060405180830381858888f19350505050158015610eaf573d6000803e3d6000fd5b5060036000848152602001908152602001600020600080820160009055600182016000610edc9190611203565b600282016000905560038201600090556004820160006101000a81549073ffffffffffffffffffffffffffffffffffffffff02191690556005820160006101000a81549073ffffffffffffffffffffffffffffffffffffffff02191690556005820160146101000a81549060ff021916905560068201600090556007820160009055505050505050565b600060026000805481526020019081526020016000209050600054816000018190555083816001019080519060200190610fa192919061124b565b50338160080160006101000a81548173ffffffffffffffffffffffffffffffffffffffff021916908373ffffffffffffffffffffffffffffffffffffffff16021790555082816002018190555060008160030181905550818160050181905550600080815480929190600101919050555050505050565b60005481565b6002602052806000526040600020600091509050806000015490806001018054600181600116156101000203166002900480601f0160208091040260200160405190810160405280929190818152602001828054600181600116156101000203166002900480156110d05780601f106110a5576101008083540402835291602001916110d0565b820191906000526020600020905b8154815290600101906020018083116110b357829003601f168201915b5050505050908060020154908060030154908060040154908060050154908060060154908060070154908060080160009054906101000a900473ffffffffffffffffffffffffffffffffffffffff16908060090160009054906101000a900473ffffffffffffffffffffffffffffffffffffffff169080600b0160009054906101000a900460ff169080600c01549080600d0160009054906101000a900460ff1690508d565b60015481565b828054600181600116156101000203166002900490600052602060002090601f016020900481019282601f106111b557805485556111f2565b828001600101855582156111f257600052602060002091601f016020900482015b828111156111f15782548255916001019190600101906111d6565b5b5090506111ff91906112cb565b5090565b50805460018160011615610100020316600290046000825580601f106112295750611248565b601f01602090049060005260206000209081019061124791906112cb565b5b50565b828054600181600116156101000203166002900490600052602060002090601f016020900481019282601f1061128c57805160ff19168380011785556112ba565b828001600101855582156112ba579182015b828111156112b957825182559160200191906001019061129e565b5b5090506112c791906112cb565b5090565b6112ed91905b808211156112e95760008160009055506001016112d1565b5090565b9056fea265627a7a72315820243b6ee594f23c4d448d9070d32451489765842f58f9aa4981e59dc966b9daa464736f6c63430005100032",
  "source": "// Version of Solidity\npragma solidity >=0.5.0;\n\n// QuickMoney Contract\ncontract QuickMoney {\n\n    uint public loanCount = 0; // Track the total number of loans \n    uint public requestsCount = 0; // Track the total number of requests \n    mapping(uint => Loan) public loans; // Mapping of loan id to loan struct\n    mapping(uint => Request) public requests; // Mapping of request id to request struct\n\n    using SafeMath for int256;\n    \n    // Certificate Structure\n    struct Loan {\n        uint identity; // Unique identifier\n        string loanDetail; // Loan display name\n        uint loanAmount; // Needed amount\n        uint loanPaid; // Paid value in the loan\n        uint interest;\n        uint rating;\n        uint period;\n        uint holding;\n        address payable loanee; // Creator's address\n        address payable loaner;\n        mapping(address => bool) recipientsMapping; // Details of all recipients\n        bool sanctioned;\n        uint remaining;\n        bool payedoff;\n    }\n    \n    // Request Structure\n    struct Request {\n        uint id; // Unique identifies\n        string loanDetail; // Associated loan details\n        uint value; // Value of crypto sent\n        uint loanId; // Unique identifier of the loan\n        address payable loanee; // Address of loanee\n        address payable loaner; // Address of requester\n        bool approved; // Approval Status\n        uint interest;\n        uint months;\n    }\n    \n    // Create a new loan\n    function newLoan(string memory detail, uint amount, uint rating) public {\n        Loan storage c = loans[loanCount]; // New loan object\n        c.identity = loanCount; // Set identifier\n        c.loanDetail = detail; // Set certificate name\n        c.loanee = msg.sender; // Set creator's address\n        c.loanAmount = amount; // Set loan cost\n        c.loanPaid = 0; // Value of loan paid off\n        c.rating = rating;\n        loanCount++; // Increment identifier for subsequent creation\n    }\n\n    function payoff(uint _id, uint value) public payable {\n        Loan storage l = loans[_id]; // Fetch associated loan\n\n        l.loanPaid = l.loanPaid + value;\n        l.remaining = l.remaining - value;\n        if(l.remaining <= 0){\n            l.payedoff = true;\n        }\n        l.loaner.transfer(msg.value);\n    }\n    \n    // Send Interest Request\n    function interestRequest(uint _id, uint interest, uint months) public payable {\n        Loan storage l = loans[_id]; // Fetch associated loan\n        \n        Request storage r = requests[requestsCount]; // Fetch associated request\n        r.id = requestsCount; // Set identifier\n        r.interest = interest; // Set interest proposal\n        r.months = months; // Set months \n        r.value = msg.value; // Set value\n        r.loanDetail = l.loanDetail; // Set name\n        r.loanee = l.loanee; // Set loanee\n        r.loanId = _id; // Set loan identifier\n        r.loaner = msg.sender; // Set loaner's address\n        requestsCount++; // Increment request count\n    }\n    \n    // Approve request\n    function approveRequest(uint _id, uint reqid, uint amt) public payable {\n        Loan storage l = loans[_id]; // Fetch associated loan\n        require(msg.sender == l.loanee, 'You are not authorised'); // Check authorisation\n\n        Request storage r = requests[reqid]; // Fetch associated request\n        r.approved = true; // Set approval status to true\n        \n        l.sanctioned = true; // Grant loan\n        l.loaner = r.loaner; // Set loaner\n        l.interest = r.interest;\n        l.period = r.months;\n        l.loanPaid = 0;\n        l.remaining = amt;\n        l.payedoff = false;\n        msg.sender.transfer(l.loanAmount); // Collect money\n    }\n    \n    // Decline request\n    function declineRequest(uint _id, uint reqid) public payable {\n        Loan storage l = loans[_id]; // Fetch associated loan\n        require(msg.sender == l.loanee, 'You are not authorised'); // Check authorisation\n\n        Request storage r = requests[reqid]; // Fetch associated request\n        r.approved = false; // Set approval status to false\n        r.loaner.transfer(l.loanAmount); // Refund the amount to the student\n        delete requests[reqid]; // Delete request\n    }\n\n    // Cancel proposal\n    function cancelProposal(uint _id, uint reqid) public payable {\n        Loan storage l = loans[_id]; // Fetch associated loan\n\n        Request storage r = requests[reqid]; // Fetch associated request\n        require(msg.sender == r.loaner, 'You are not authorised'); // Check authorisation\n        r.approved = false; // Set approval status to false\n        msg.sender.transfer(l.loanAmount); // Refund the amount to the lender\n        delete requests[reqid]; // Delete request\n    }\n    \n}\n\nlibrary SafeMath {\n    /**\n     * @dev Returns the addition of two unsigned integers, reverting on\n     * overflow.\n     *\n     * Counterpart to Solidity's `+` operator.\n     *\n     * Requirements:\n     * - Addition cannot overflow.\n     */\n    function add(uint256 a, uint256 b) internal pure returns (uint256) {\n        uint256 c = a + b;\n        require(c >= a, \"SafeMath: addition overflow\");\n\n        return c;\n    }\n\n    /**\n     * @dev Returns the subtraction of two unsigned integers, reverting on\n     * overflow (when the result is negative).\n     *\n     * Counterpart to Solidity's `-` operator.\n     *\n     * Requirements:\n     * - Subtraction cannot overflow.\n     */\n    function sub(uint256 a, uint256 b) internal pure returns (uint256) {\n        return sub(a, b, \"SafeMath: subtraction overflow\");\n    }\n\n    /**\n     * @dev Returns the subtraction of two unsigned integers, reverting with custom message on\n     * overflow (when the result is negative).\n     *\n     * Counterpart to Solidity's `-` operator.\n     *\n     * Requirements:\n     * - Subtraction cannot overflow.\n     */\n    function sub(uint256 a, uint256 b, string memory errorMessage) internal pure returns (uint256) {\n        require(b <= a, errorMessage);\n        uint256 c = a - b;\n\n        return c;\n    }\n\n    /**\n     * @dev Returns the multiplication of two unsigned integers, reverting on\n     * overflow.\n     *\n     * Counterpart to Solidity's `*` operator.\n     *\n     * Requirements:\n     * - Multiplication cannot overflow.\n     */\n    function mul(uint256 a, uint256 b) internal pure returns (uint256) {\n        // Gas optimization: this is cheaper than requiring 'a' not being zero, but the\n        // benefit is lost if 'b' is also tested.\n        // See: https://github.com/OpenZeppelin/openzeppelin-contracts/pull/522\n        if (a == 0) {\n            return 0;\n        }\n\n        uint256 c = a * b;\n        require(c / a == b, \"SafeMath: multiplication overflow\");\n\n        return c;\n    }\n\n    /**\n     * @dev Returns the integer division of two unsigned integers. Reverts on\n     * division by zero. The result is rounded towards zero.\n     *\n     * Counterpart to Solidity's `/` operator. Note: this function uses a\n     * `revert` opcode (which leaves remaining gas untouched) while Solidity\n     * uses an invalid opcode to revert (consuming all remaining gas).\n     *\n     * Requirements:\n     * - The divisor cannot be zero.\n     */\n    function div(uint256 a, uint256 b) internal pure returns (uint256) {\n        return div(a, b, \"SafeMath: division by zero\");\n    }\n\n    /**\n     * @dev Returns the integer division of two unsigned integers. Reverts with custom message on\n     * division by zero. The result is rounded towards zero.\n     *\n     * Counterpart to Solidity's `/` operator. Note: this function uses a\n     * `revert` opcode (which leaves remaining gas untouched) while Solidity\n     * uses an invalid opcode to revert (consuming all remaining gas).\n     *\n     * Requirements:\n     * - The divisor cannot be zero.\n     */\n    function div(uint256 a, uint256 b, string memory errorMessage) internal pure returns (uint256) {\n        // Solidity only automatically asserts when dividing by 0\n        require(b > 0, errorMessage);\n        uint256 c = a / b;\n        // assert(a == b * c + a % b); // There is no case in which this doesn't hold\n\n        return c;\n    }\n\n    /**\n     * @dev Returns the remainder of dividing two unsigned integers. (unsigned integer modulo),\n     * Reverts when dividing by zero.\n     *\n     * Counterpart to Solidity's `%` operator. This function uses a `revert`\n     * opcode (which leaves remaining gas untouched) while Solidity uses an\n     * invalid opcode to revert (consuming all remaining gas).\n     *\n     * Requirements:\n     * - The divisor cannot be zero.\n     */\n    function mod(uint256 a, uint256 b) internal pure returns (uint256) {\n        return mod(a, b, \"SafeMath: modulo by zero\");\n    }\n\n    /**\n     * @dev Returns the remainder of dividing two unsigned integers. (unsigned integer modulo),\n     * Reverts with custom message when dividing by zero.\n     *\n     * Counterpart to Solidity's `%` operator. This function uses a `revert`\n     * opcode (which leaves remaining gas untouched) while Solidity uses an\n     * invalid opcode to revert (consuming all remaining gas).\n     *\n     * Requirements:\n     * - The divisor cannot be zero.\n     */\n    function mod(uint256 a, uint256 b, string memory errorMessage) internal pure returns (uint256) {\n        require(b != 0, errorMessage);\n        return a % b;\n    }\n}",
  "sourcePath": "/Users/skhiearth/Desktop/QuickMoney/QuickMoney/src/contracts/QuickMoney.sol",
  "compiler": {
    "name": "solc",
    "version": "0.5.16+commit.9c3226ce.Emscripten.clang"
  },
  "schemaVersion": "3.3.0",
  "updatedAt": "2020-12-10T10:21:40.407Z",
  "networkType": "ethereum",
  "devdoc": {
    "methods": {}
  },
  "userdoc": {
    "methods": {}
  }
}